:100000000EC025C149C126C025C08AC123C022C057
:1000100021C020C01FC01EC049C11CC01BC011246C
:100020001FBECFE5D2E0DEBFCDBF11E0A0E6B0E05D
:10003000EEE6FDE002C005900D92AC31B107D9F7B4
:1000400021E0ACE1B1E001C01D92A336B207E1F7B7
:100050005DD28BC617C1A895F89414BE91B598616E
:1000600091BD813049F030F0823041F0833041F46D
:1000700087E405C082E403C083E401C085E481BD58
:1000800078940895A895F89414BE81B5886181BDCF
:1000900011BC7894089585B7877E806185BFF894F8
:1000A00085B7806285BF85B7846885BF8B7F85BF34
:1000B0007894889585B78F7D85BF08959C016930B8
:1000C00068F4862F660F990B6AE270E0CED5BC010A
:1000D0006B5F7F4F4AE250E0C90118C6089543E0C4
:1000E00050E062E070E012C6AF92BF92CF92DF9212
:1000F000EF92FF920F931F93CF93DF93693008F035
:1001000043C07901042F162FEC01862F660F990B3F
:100110006AE270E0AAD5BC016B5F7F4F4AE250E013
:10012000CE01DCD56E015E018AE2A80EB11CFE0193
:10013000819187FF11C0EA15FB05D1F760E971E0F5
:1001400084EFDF91CF911F910F91FF90EF90DF909F
:10015000CF90BF90AF907CC1002329F0183019F0E8
:1001600068E0CE01ABDFF60181916F018D3048F47C
:100170008C3019F480ED97E003C0B70169D1C70155
:1001800041D1CA14DB0479F7DF91CF911F910F9110
:10019000FF90EF90DF90CF90BF90AF900895CF93F6
:1001A000909153019A32B0F4C82FE92FF0E0E45E49
:1001B000FE4F85839F5F9093530168E081E291E059
:1001C0007DDFCC3039F01092560180911D0188609E
:1001D00080931D01CF91089580915601882361F08D
:1001E000809153018A3240F48CE0D9DF809156012E
:1001F000815080935601F0CF10925601089590914E
:1002000053019A32E8F4E92FF0E0E45EFE4F858373
:100210009F5F9093530180911C01863039F080914B
:100220005101863019F06091520101C067E081E20E
:1002300091E044DF609157017091580183EF08C14C
:1002400060E273E084EF04D110921C0108951F92C4
:100250000F920FB60F9211248F9380911E0181117E
:100260000BC080911D018C7F80931D0180914B01FB
:100270008F5F80934B01A8958F910F900FBE0F90C9
:100280001F9018951F920F920FB60F9211240F9086
:100290000FBE0F901F9018951F920F920FB60F92DE
:1002A00011240F900FBE0F901F9018951F920F9260
:1002B0000FB60F9211248F93EF93FF93ECE1F1E0CF
:1002C000818184608183FF91EF918F910F900FBEA8
:1002D0000F901F9018958AB580688ABD8AB58F7B6C
:1002E0008ABD089582E089BF83E08ABD81E083BF33
:1002F00012BE19BCB89A1092600110925D01109262
:100300005F0110925E0110926201109261011092E1
:10031000590110925A0110925B0110925C010895EC
:100320001F920F920FB60F9211242F933F938F932A
:100330009F93AF93BF93EF93FF93209160018091C0
:100340005E0190915F01820F911D90935F018093F8
:100350005E01E0915E01F0915F01349623E0F69535
:10036000E7952A95E1F7EF770E2E000CFF0BE45688
:10037000FF4F808190915D019923F1F090915D0193
:100380002091610130916201290F311D309362018A
:1003900020936101E0916101F0916201349693E054
:1003A000F695E7959A95E1F7EF770E2E000CFF0B87
:1003B000E456FF4F908101C090E0890F9695969585
:1003C000891B89BD8091590190915A01A0915B01CF
:1003D000B0915C010196A11DB11D809359019093CC
:1003E0005A01A0935B01B0935C01FF91EF91BF9123
:1003F000AF919F918F913F912F910F900FBE0F90D2
:100400001F9018951092590110925A0110925B0199
:1004100010925C0125B7277E25BF6FE070E025D4E0
:10042000A0E0B0E04091590150915A0160915B0108
:1004300070915C0184179507A607B70740F025B7B0
:10044000206225BF889525B72F7D25BFEBCF089566
:10045000CF93DF93EB011BBE8C3060F4E82FEE0FDF
:10046000FF0BEC57FF4F8081809360018181809367
:100470005D0107C0863F39F482E4809360011092E9
:100480005D0129DF31C0833F11F481E2F6CF853F62
:10049000A1F482E28093600110925D011CDFCE0125
:1004A00063E070E0F3D3EB01CB01ACDF8BE2809330
:1004B0006001CE01A7DF83E315C0843FB9F483E375
:1004C0008093600110925D0106DFCE0163E070E071
:1004D000DDD3EB01CB0196DF8BE280936001CE018F
:1004E00091DF82E280936001CE018CDF8AB58F7745
:1004F0008ABD8AB58F7B8ABDC09810926001109228
:100500005D0180E68BBFDF91CF910895CF93DF939C
:1005100000D01F92CDB7DEB71092560190E896BD7D
:1005200016BC88B3866088BB8BE080BD98B983E039
:1005300085BF80E68BBF86E085BB789481E08BDD4C
:10054000AADDA0DDCFDE10921C0181E080931E01A8
:1005500010921D011092510110921F018FEF809394
:100560004C0180934D0180934E0180934F01809305
:100570005001109220011092530110925201809369
:10058000540181E090E0BAD3813019F080E590E029
:1005900002C088EC90E0909358018093570180E06E
:1005A00090E0ACD3813011F083E001C082E0809311
:1005B00055013BE4E32E31E0F32EE1E2F1E08FEF71
:1005C0008193EE16FF06E1F743E050E062E070E051
:1005D000CE01019683D389818130D9F5EA81EF3F3D
:1005E00049F0EA30B0F5F0E0E658FF4F108117FF10
:1005F00002C02FC017E0EB81EA3040F4F0E0EE0FCC
:10060000FF1FE05AFF4FA080B18002C0A12CB12C87
:10061000B19B1CC0C12CD12CCA14DB0450F4B19B7B
:1006200018C080E018DD37DD2DDD80E4C80ED11C58
:10063000F3CF28DD81E090E061D38130A9F528EC8B
:1006400030E040E0612F81E291E04EDD81E0809377
:100650001F01DD24D39455245A9401E01FEFF0E5E7
:10066000AF2EB12CA3E06A2EB5E07B2E84E0482E9D
:1006700097E0392E96B381E0292F227091FF80E018
:1006800080931E0190911F01992399F010921C01F3
:1006900090911D019C7F90931D0110934B0122238B
:1006A00031F010921F0103C020E530E0CACFD82EF0
:1006B000E1CFD81609F45CC280911D01211107C059
:1006C000877F816080931D0110924B018EC08C7FCB
:1006D00080931D0180914B019FEF980F9A3008F491
:1006E00088C010934B0180911C01813041F4CADC19
:1006F000209157013091580140E067E0FCC0823002
:1007000091F4C0DC3092520186E080935101109246
:100710005301E1E2F1E05192EE16FF06E1F786E0C7
:1007200080931C0132C2833011F08630C1F5AADCFF
:100730004AE250E065E571E081E291E0CFD21092AB
:10074000530180E08A3259F021E0280FE82FF0E0D1
:10075000E45EFE4F958197FD02C0822FF3CF809318
:10076000530180911C01863019F06091520101C043
:1007700067E081E291E0A2DCD12C80915301D81690
:1007800008F003C2609157017091580183EF60DE59
:10079000809157019091580135DED394EECF84308B
:1007A00071F470DC1093540170921C016091570138
:1007B0007091580183EF4CDE09831A836EC1811159
:1007C00012C060DC4AE250E065E571E081E291E050
:1007D00085D2209157013091580140E068E081E2D4
:1007E00091E082DCD2C110921F0180E034DC53DC46
:1007F000CCC18A3011F410924B0181E02CDC4BDC2F
:1008000041DCD0901C01D11020C060915701709143
:10081000580180914B011CDED0904B018FEF8D0D64
:10082000823060F481E0D81203C0EAE0DE2E02C01C
:100830007BE0D72ED1DC8D2DB2DC52C1CDDC8D2DED
:10084000AEDC8FEFD8124CC1A0C181E0D81257C0E6
:1008500080912001E0914B018823C1F08FEF8E0F32
:10086000823030F4E13011F48AE005C08BE003C03F
:10087000E33051F48CE0C3DC80915101863009F003
:1008800083E080931C01ADC010922001E13069F437
:1008900060915701709158018AE0DADD8AE07FDCCF
:1008A00010921C016AE0D62E1BC1E23069F46091FF
:1008B0005701709158018BE0CBDD8BE070DC10921A
:1008C0001C015BE0D52E0CC1E33041F4DBDB209151
:1008D00057013091580140E068E00DC00E2E000C29
:1008E000FF0BE658FF4F608167FD4FC12091570114
:1008F0003091580141E081E291E0F6DB49C082E0AD
:10090000D812A8C0E0914B01E130D9F481E090E029
:10091000F5D1D82E61E0861301C060E081E090E05F
:1009200016D281E0D81203C080E590E002C088ECC6
:1009300090E0909358018093570181E0D81218C03D
:100940002AC0E23079F580E090E0D8D1C82E61E08D
:10095000861301C060E080E090E0F9D181E0C81228
:1009600002C023E0D22ED092550181E0C81213C0FC
:100970003CE2C32EDD24D3944CE2842E992493943C
:10098000B60186EF65DDC4013DDDB60186EF60DDB1
:1009900010921C01FAC080E5C82ED12C96E9892E50
:1009A000912CEECF809120018823A1F1E11132C07A
:1009B000809151018430C1F443E050E062E070E086
:1009C000CE0101968BD119821A831B83CE01019629
:1009D00086DB60E273E084EF3BDD109354011092FC
:1009E0001C0110922001D1C0833011F08630C9F46F
:1009F00060915201E1E2F1E05192EE16FF06E1F75B
:100A00001092530181E291E059DB60E971E084EFDB
:100A10001FDDE5CFE33029F44092510140921C01E3
:100A200016C00E2E000CFF0BE658FF4F808187FD8D
:100A3000AFCF609251018093520110925301E1E2D5
:100A4000F1E05192EE16FF06E1F760921C0100936F
:100A500020019BC083E0D81204C080914B01CFDB02
:100A600094C084E0D8121EC080914B01E82F082E5C
:100A7000000CFF0BE658FF4F908197FD89CF8093C4
:100A8000540170921C01609157017091580183EFDD
:100A9000DFDC0983809154018A837B82CE01019639
:100AA0001EDB73C085E0D81217C080914B018A30DD
:100AB00064F40983909154019A838B83CE0101964B
:100AC0000EDB60E971E085EF03C060E971E084EF5F
:100AD000BFDC109354015CCF86E0D81256C0BDCF66
:100AE00080914D0180934C0180914E0180934D0186
:100AF00080914F0180934E018091500180934F016E
:100B0000D092500145E050E064E770E08CE491E061
:100B1000D1D0892BD1F560E273E084EF99DCC12C50
:100B2000D12CA8956FEFC60112D18FEFC81AD80A41
:100B3000C11482E0D806A9F7B0925801A0925701DB
:100B40006092550110934C0110934D0110934E018A
:100B500010934F011093500160E971E085EF78DC4C
:100B600045E050E06FEF7FEF8CE491E0B0D00DC036
:100B7000DD2059F010921C011092510180911D014D
:100B80008C7F80931D0110934B01D0901E018091AA
:100B90001D0180FF21C08B7F80931D018091550135
:100BA0005ADA79DA80911D0182FF14C090911C01FC
:100BB00090935101933011F0963011F4009320017D
:100BC00000931C018A7F826080931D0168EC70E0B5
:100BD00083EF17C08E7F3AC081FF17C08B7F809351
:100BE0001D0183E038DA57DA80911D0182FF0BC0C6
:100BF00092E090931C01897F80931D0168EC70E066
:100C000085EF26DC37CD8D7F21C083FF22C08B7F0F
:100C100080931D0183E01FDA3EDA80911D0182FF7F
:100C200014C0982F9B7F90931D0190915601923094
:100C300008F020CD9F5F90935601923009F01ACDB5
:100C4000837F80931D011EDA15CD877F80931D0160
:100C500011CD85B7877E806185BF85B7806285BFEE
:100C6000889585B78F7D85BF05CD0024552704C0A5
:100C7000080E591F880F991F009729F076956795E0
:100C8000B8F37105B9F7802D952F0895AA1BBB1BEA
:100C900051E107C0AA1FBB1FA617B70710F0A61B7C
:100CA000B70B881F991F5A95A9F780959095BC019D
:100CB000CD010895FB01DC0104C08D9101908019E4
:100CC00021F441505040C8F7881B990B0895DC016E
:100CD00001C06D9341505040E0F70895DC01CB0115
:100CE000FC01E199FECF06C0FFBBEEBBE09A319656
:100CF0000DB20D9241505040B8F70895E199FECFE2
:100D00009FBB8EBBE09A99278DB30895DC01A40F99
:100D1000B51F4150504040F0CB01840F951F2E91DC
:100D200005D041505040D8F70895262FE199FECFC5
:100D30009FBB8EBBE09A01970DB2021639F01CBA28
:100D40002DBB0FB6F894E29AE19A0FBE0895262FB4
:100D5000E199FECF1CBA9FBB8EBB2DBB0FB6F8949A
:0E0D6000E29AE19A0FBE01960895F894FFCF33
:100D6E00F401E803D007B80BA00F88137017581BB7
:100D7E00401F28230A0B000B0A0000FFFFFF010291
:100D8E0003040506573D4F2E572E602E4F32573215
:100D9E0060324F38573860384F3D603D40434649CA
:100DAE004C4F5255585B5E606366686A6D6F717327
:100DBE00757678797B7C7D7E7E7F7F7F7F7F7F7F60
:100DCE007E7E7D7C7B7978767573716F6D6A6866D1
:100DDE0063605E5B5855524F4C494643403C393632
:100DEE0033302D2A2724211F1C19171512100E0C13
:100DFE000A090706040302010100000000000000BA
:100E0E0001010203040607090A0C0E101215171928
:0C0E1E001C1F2124272A2D303336393CBC
:00000001FF
