:100000000EC012C136C126C025C077C123C022C090
:1000100021C020C01FC01EC036C11CC01BC011247F
:100020001FBECFE5D2E0DEBFCDBF11E0A0E6B0E05D
:10003000E6E5FEE002C005900D92AC31B107D9F7BC
:1000400021E0ACE1B1E001C01D92A436B207E1F7B6
:100050004AD2FFC604C1A895F89414BE91B5986120
:1000600091BD813049F030F0823041F0833041F46D
:1000700087E405C082E403C083E401C085E481BD58
:1000800078940895A895F89414BE81B5886181BDCF
:1000900011BC7894089585B7877E806185BFF894F8
:1000A00085B7806285BF85B7846885BF8B7F85BF34
:1000B0007894889585B78F7D85BF08959C016930B8
:1000C00068F4862F660F990B6AE270E042D6BC0195
:1000D000675F7F4F4AE250E0C9018CC6089543E054
:1000E00050E066E070E086C6AF92BF92CF92DF929A
:1000F000EF92FF920F931F93CF93DF93693008F035
:1001000043C07901042F162FEC01862F660F990B3F
:100110006AE270E01ED6BC01675F7F4F4AE250E0A2
:10012000CE0150D66E015E018AE2A80EB11CFE011E
:10013000819187FF11C0EA15FB05D1F760E971E0F5
:1001400084EFDF91CF911F910F91FF90EF90DF909F
:10015000CF90BF90AF9069C1002329F0183019F0FB
:1001600068E0CE01ABDFF60181916F018D3048F47C
:100170008C3019F480ED97E003C0B70156D1C70168
:100180002ED1CA14DB0479F7DF91CF911F910F9123
:10019000FF90EF90DF90CF90BF90AF900895CF93F6
:1001A000909154019A32B0F4C82FE92FF0E0E45E48
:1001B000FE4F86839F5F9093540168E082E291E056
:1001C0007DDFCC3039F01092570180911D0188609D
:1001D00080931D01CF910895909154019A32E8F4D3
:1001E000E92FF0E0E45EFE4F86839F5F9093540119
:1001F00080911C01863039F080915201863019F0CF
:100200006091530101C067E082E291E057DF6091A5
:1002100058017091590183EF08C160E273E084EFE7
:1002200004D110921C0108951F920F920FB60F92E5
:1002300011248F9380911E0181110BC080911D01AB
:100240008C7F80931D0180914C018F5F80934C01C6
:10025000A8958F910F900FBE0F901F9018951F9229
:100260000F920FB60F9211240F900FBE0F901F9098
:1002700018951F920F920FB60F9211240F900FBE78
:100280000F901F9018951F920F920FB60F92112486
:100290008F93EF93FF93ECE1F1E0818184608183A0
:1002A000FF91EF918F910F900FBE0F901F901895B7
:1002B0008AB580688ABD8AB58F7B8ABD089582E041
:1002C00089BF83E08ABD81E083BF12BE19BCB89AA2
:1002D0001092610110925E011092600110925F0114
:1002E000109263011092620110925A0110925B0108
:1002F00010925C0110925D0108951F920F920FB64B
:100300000F9211242F933F938F939F93AF93BF939B
:10031000EF93FF932091610180915F0190916001C3
:10032000820F911D9093600180935F01E0915F01C6
:10033000F0916001349623E0F695E7952A95E1F770
:10034000EF770E2E000CFF0BE456FF4F808190914B
:100350005E019923F1F090915E012091620130914C
:100360006301290F311D3093630120936201E091F5
:100370006201F0916301349693E0F695E7959A95C2
:10038000E1F7EF770E2E000CFF0BE456FF4F908144
:1003900001C090E0890F96959695891B89BD809143
:1003A0005A0190915B01A0915C01B0915D010196B1
:1003B000A11DB11D80935A0190935B01A0935C0134
:1003C000B0935D01FF91EF91BF91AF919F918F919C
:1003D0003F912F910F900FBE0F901F901895109284
:1003E0005A0110925B0110925C0110925D0125B7D9
:1003F000277E25BF6FE070E0ACD4A0E0B0E0409174
:100400005A0150915B0160915C0170915D0184170C
:100410009507A607B70740F025B7206225BF889546
:1004200025B72F7D25BFEBCF0895CF93DF93EB0149
:100430001BBE8C3060F4E82FEE0FFF0BEC57FF4F24
:10044000808180936101818180935E0107C0863F36
:1004500039F482E48093610110925E0129DF31C09A
:10046000833F11F481E2F6CF853FA1F482E28093CD
:10047000610110925E011CDFCE0163E070E07AD46E
:10048000EB01CB01ACDF8BE280936101CE01A7DFF2
:1004900083E315C0843FB9F483E380936101109234
:1004A0005E0106DFCE0163E070E064D4EB01CB01B6
:1004B00096DF8BE280936101CE0191DF82E280932F
:1004C0006101CE018CDF8AB58F778ABD8AB58F7BBB
:1004D0008ABDC0981092610110925E0180E68BBFC8
:1004E000DF91CF910895CF93DF9300D01F92CDB7C6
:1004F000DEB71092570180E090E074D491E0813033
:1005000009F090E09093210190E896BD16BC88B365
:10051000866088BB8BE080BD98B983E085BF80E6AC
:100520008BBF86E085BB789481E095DDB4DDAADDE4
:10053000C6DE10921C0181E080931E0110921D0105
:100540001092520110921F018FEF80934D01809302
:100550004E0180934F01809350018093510110927E
:10056000200110925401109253018093550185E0AF
:1005700090E038D4813019F080E590E002C088EC3A
:1005800090E0909359018093580184E090E02AD440
:10059000813011F083E001C082E080935601E2E2F5
:1005A000F1E08FEF819391E0EC34F907D9F743E064
:1005B00050E066E070E0CE01019604D4898181307C
:1005C000D9F5EA81EF3F49F0EA30B0F5F0E0E658BE
:1005D000FF4F108117FF02C02FC017E0EB81EA30F8
:1005E00040F4F0E0EE0FFF1FE05AFF4FC080D180D3
:1005F00002C0C12CD12CB19B1CC0E12CF12CEC14FD
:10060000FD0450F4B19B18C080E025DD44DD3ADDE7
:1006100080E4E80EF11CF3CF35DD85E090E0E2D315
:100620008130C9F528EC30E040E0612F82E291E0B2
:100630005BDD81E080931F01DD24D394EE24EA94F6
:10064000222423941FEF40E5A42EB12C53E0752EF5
:1006500065E0F62E74E0572EE7E04E2EF6E06F2EA2
:1006600086B391E0282F227081FF90E090931E01C5
:1006700030911F0180911D01332381F010921C01E4
:100680008C7F80931D0110934C01222309F45FC3DA
:1006900010921F015CC320E530E0C6CFD91609F4E3
:1006A000DBC2211107C0877F816080931D011092FA
:1006B0004C019CC08C7F80931D0180914C019FEF69
:1006C000980F9A3008F496C010934C0180911C0149
:1006D000813059F4D7DC209158013091590140E024
:1006E00067E082E291E000DD54C18230C9F480917C
:1006F0002101882321F068EC70E084EF49C1C2DC5D
:10070000409253016092520110925401E2E2F1E0F2
:10071000E19291E0EC34F907D9F760921C01A7C28D
:10072000833011F08630C1F5ADDC4AE250E069E576
:1007300071E082E291E046D31092540180E08A3267
:1007400059F021E0280FE82FF0E0E45EFE4F96819B
:1007500097FD02C0822FF3CF8093540180911C013A
:10076000863019F06091530101C067E082E291E0A8
:10077000A5DCD12C80915401D81608F078C2609184
:1007800058017091590183EF50DE8091580190918A
:10079000590125DED394EECF843091F473DC1093AD
:1007A0005501F0921C01609158017091590183EF3D
:1007B0003CDE29821A83FB82CE01019690DC57C26F
:1007C000811112C05FDC4AE250E069E571E082E22B
:1007D00091E0F8D2209158013091590140E068E051
:1007E00082E291E081DC43C210921F0180E033DCA1
:1007F00052DC3DC28A3011F410924C0181E02BDCB6
:100800004ADC40DC00911C01011121C000914C0127
:1008100080912101811166C1609158017091590147
:10082000802F03DE80915701882361F0809154016D
:100830008A3240F48CE0B3DC809157018150809380
:100840005701F0CF10925701802FA9DC4BC1013026
:1008500009F055C080912001E0914C018823C1F03E
:100860008FEF8E0F823030F4E13011F48AE005C052
:100870008BE003C0E33051F48CE0AEDC8091520198
:10088000863009F083E080931C01C3C010922001E0
:10089000E13061F460915801709159018AE0C5DD41
:1008A0008AE07DDC10921C010AE01CC1E23061F498
:1008B00060915801709159018BE0B7DD8BE06FDCDE
:1008C00010921C010BE00EC1E33041F4DBDB209100
:1008D00058013091590140E068E00DC00E2E000C27
:1008E000FF0BE658FF4F608167FDF7C0209158016C
:1008F0003091590141E082E291E0F6DBECC0023038
:1009000009F0ABC0809121018111F5CEE0914C013D
:10091000E130C9F485E090E065D2082F61E08130D4
:1009200009F460E085E090E086D2013019F480E5BA
:1009300090E002C088EC90E09093590180935801B8
:100940000130B9F429C0E23071F584E090E04AD278
:10095000C82E61E0861301C060E084E090E06BD2B5
:1009600081E0C81201C003E00093560191E0C91272
:1009700013C02CE2C22EDD24D3943CE2832E9924B2
:100980009394B60186EF51DDC40129DDB60186EFEF
:100990004CDD10921C016BC180E5C82ED12C96E96C
:1009A000892E912CEECF809120018823A9F1E111AD
:1009B00033C0809152018430A1F443E050E066E0FE
:1009C00070E0CE010196FED119821A831B83CE01FD
:1009D000019685DB60E273E084EF27DD109355011B
:1009E00016C0833011F08630F1F460915301E2E2D9
:1009F000F1E0E19281E0EC34F807D9F7109254016C
:100A000082E291E05BDB60E971E084EF0EDD109241
:100A10001C01109220012BC1E33029F450925201A5
:100A200050921C0117C00E2E000CFF0BE658FF4F12
:100A3000808187FD50C070925201809353011092C3
:100A40005401E2E2F1E0E19291E0EC34F907D9F7E8
:100A500070921C012092200140C0033021F480914B
:100A60004C01BADB3AC00430F1F480914C01E82F1C
:100A7000082E000CFF0BE658FF4F908197FD2BC00E
:100A800080935501F0921C016091580170915901B9
:100A900083EFCBDC2982809155018A83FB82CE01D2
:100AA00001961DDB1AC00530D1F480914C018A30CB
:100AB00064F42982909155019A838B83CE0101962B
:100AC0000EDB60E971E085EF03C060E971E084EF5F
:100AD000ACDC1093550110921C010FEF03C00630DF
:100AE000E1F7BDCF80915401863008F0C0C00F3FC0
:100AF00009F4BDC030904E0130924D0180904F01FD
:100B000080924E019090500190924F01C0905101FF
:100B1000C09250010093510145E050E064E770E05D
:100B20008DE491E03BD1892B49F580912101882307
:100B300019F068EC70E086C060E273E084EF75DC69
:100B4000C12CD12CA8956FEFC60175D18FEFC81AB3
:100B5000D80AC11492E0D906A9F7B0925901A0921F
:100B600058017092560110934D0110934E0110934D
:100B70004F0110935001109351012FC08AE0381299
:100B800076C09BE0891273C089E0891508F46FC0B4
:100B90008C1508F46CC00A3008F069C043E050E0DE
:100BA00061E070E0CE0101960DD189818F3FC9F4DB
:100BB00060914F0181E090E03ED16091500182E070
:100BC00090E039D16091510183E090E034D161E04F
:100BD00080E090E030D12092210160E971E085EF62
:100BE00032C090E020914F01022E000C330B82178F
:100BF000930751F52A8130E080915001082E000CB6
:100C0000990B2817390701F52B8130E080915101AC
:100C1000082E000C990B28173907B1F46FEF81E00B
:100C200090E009D16FEF82E090E005D16FEF83E0B3
:100C300090E001D160E080E090E0FDD010922101D1
:100C400060E971E084EFF1DB45E050E06FEF7FEFAA
:100C50008DE491E0B0D00BC0DD2049F010921C0172
:100C6000109252018C7F80931D0110934C01D09003
:100C70001E0180911D0180FF21C08B7F80931D018B
:100C800080915601E8D907DA80911D0182FF14C0D6
:100C900090911C0190935201933011F0963011F411
:100CA0002092200120921C018A7F826080931D0186
:100CB00068EC70E083EF17C08E7F3AC081FF17C0E9
:100CC0008B7F80931D0183E0C6D9E5D980911D01FA
:100CD00082FF0BC092E090931C01897F80931D01DD
:100CE00068EC70E085EFA1DBBBCC8D7F21C083FF7A
:100CF00022C08B7F80931D0183E0ADD9CCD9809138
:100D00001D0182FF14C0982F9B7F90931D0190912D
:100D10005701923008F0A4CC9F5F90935701923016
:100D200009F09ECC837F80931D01ACD999CC877F3D
:100D300080931D0195CC85B7877E806185BF85B77F
:100D4000806285BF889585B78F7D85BF89CCD92E78
:100D500087CC0024552704C0080E591F880F991FFF
:100D6000009729F076956795B8F37105B9F7802D4E
:100D7000952F0895AA1BBB1B51E107C0AA1FBB1FDB
:100D8000A617B70710F0A61BB70B881F991F5A9517
:100D9000A9F780959095BC01CD010895FB01DC0178
:100DA00004C08D910190801921F441505040C8F742
:100DB000881B990B0895DC0101C06D934150504090
:100DC000E0F70895DC01CB01FC01E199FECF06C0FC
:100DD000FFBBEEBBE09A31960DB20D9241505040F0
:100DE000B8F70895E199FECF9FBB8EBBE09A992793
:100DF0008DB30895DC01A40FB51F4150504040F061
:100E0000CB01840F951F2E9105D041505040D8F74B
:100E10000895262FE199FECF9FBB8EBBE09A0197E4
:100E20000DB2021639F01CBA2DBB0FB6F894E29A37
:100E3000E19A0FBE0895262FE199FECF1CBA9FBB01
:100E40008EBB2DBB0FB6F894E29AE19A0FBE0196C5
:060E50000895F894FFCFA5
:100E5600F401E803D007B80BA00F88137017581BCE
:100E6600401F28230A0B000B0A0000FFFFFF0102A8
:100E760003040506573D4F2E572E602E4F3257322C
:100E860060324F38573860384F3D603D40434649E1
:100E96004C4F5255585B5E606366686A6D6F71733E
:100EA600757678797B7C7D7E7E7F7F7F7F7F7F7F77
:100EB6007E7E7D7C7B7978767573716F6D6A6866E8
:100EC60063605E5B5855524F4C494643403C393649
:100ED60033302D2A2724211F1C19171512100E0C2A
:100EE6000A090706040302010100000000000000D1
:100EF60001010203040607090A0C0E101215171940
:0C0F06001C1F2124272A2D303336393CD3
:00000001FF
