:100000000EC0C8C0E9C026C025C02AC123C022C076
:1000100021C020C01FC01EC0E9C01CC01BC01124CD
:100020001FBECFE5D2E0DEBFCDBF11E0A0E6B0E05D
:10003000EEE3FBE002C005900D92A631B107D9F7BF
:1000400021E0A6E1B1E001C01D92AD34B207E1F7B5
:10005000FDD173C5B7C0A895F89414BE91B5986149
:1000600091BD813049F030F0823041F0833041F46D
:1000700087E405C082E403C083E401C085E481BD58
:1000800078940895A895F89414BE81B5886181BDCF
:1000900011BC7894089585B7877E806185BFF894F8
:1000A00085B7806285BF85B7846885BF8B7F85BF34
:1000B0007894889585B78F7D85BF0895683068F4FA
:1000C000062E000C770B25E0660F771F2A95E1F7C7
:1000D0006B5F7F4F40E250E001C50895AF92BF9241
:1000E000CF92DF92EF92FF920F931F93CF93DF9304
:1000F000683008F044C07901042F162FEC01062E59
:10010000000C770B85E0660F771F8A95E1F76B5F30
:100110007F4F40E250E0CE01C9D46E015E0180E223
:10012000A80EB11CFE01819187FF11C0EA15FB05E5
:10013000D1F760E971E084EFDF91CF911F910F91CA
:10014000FF90EF90DF90CF90BF90AF9021C1002340
:1001500029F0173019F067E0CE01B0DFF601819188
:100160006F018D3048F48C3019F480ED97E003C0B6
:10017000B7010ED1C701E6D0CA14DB0479F7DF91CD
:10018000CF911F910F91FF90EF90DF90CF90BF9094
:10019000AF9008951F920F920FB60F9211248F9374
:1001A00080911801811108C01092170180914201BD
:1001B0008F5F80934201A8958F910F900FBE0F9093
:1001C0001F9018951F920F920FB60F9211240F9047
:1001D0000FBE0F901F9018951F920F920FB60F929F
:1001E00011240F900FBE0F901F9018951F920F9221
:1001F0000FB60F9211248F93EF93FF93E6E1F1E096
:10020000818184608183FF91EF918F910F900FBE68
:100210000F901F9018958AB580688ABD8AB58F7B2C
:100220008ABD089582E089BF83E08ABD81E083BFF3
:1002300012BE19BCB89A10924A011092470110924E
:1002400049011092480110924C0110924B011092FA
:100250004301109244011092450110924601089505
:100260001F920F920FB60F9211242F933F938F93EB
:100270009F93AF93BF93EF93FF9320914A01809197
:10028000480190914901820F911D909349018093FB
:100290004801E0914801F0914901349623E0F69538
:1002A000E7952A95E1F7EF770E2E000CFF0BEA5643
:1002B000FF4F8081909147019923F1F09091470180
:1002C00020914B0130914C01290F311D30934C018D
:1002D00020934B01E0914B01F0914C01349693E057
:1002E000F695E7959A95E1F7EF770E2E000CFF0B48
:1002F000EA56FF4F908101C090E0890F9695969540
:10030000891B89BD8091430190914401A0914501D1
:10031000B09146010196A11DB11D809343019093B8
:100320004401A0934501B0934601FF91EF91BF9125
:10033000AF919F918F913F912F910F900FBE0F9092
:100340001F9018951092430110924401109245019C
:100350001092460125B7277E25BF6FE070E081D35C
:10036000A0E0B0E04091430150914401609145010B
:100370007091460184179507A607B70740F025B787
:10038000206225BF889525B72F7D25BFEBCF089527
:10039000CF93DF93EB011BBE8C3060F4E82FEE0FA0
:1003A000FF0BE258FF4F808180934A018181809347
:1003B000470107C0863F39F482E480934A011092D6
:1003C000470129DF31C0833F11F481E2F6CF853F39
:1003D000A1F482E280934A01109247011CDFCE0112
:1003E00063E070E04FD3EB01CB01ACDF8BE2809395
:1003F0004A01CE01A7DF83E315C0843FB9F483E34C
:1004000080934A011092470106DFCE0163E070E05D
:1004100039D3EB01CB0196DF8BE280934A01CE0109
:1004200091DF82E280934A01CE018CDF8AB58F771B
:100430008ABD8AB58F7B8ABDC09810924A011092FE
:10044000470180E68BBFDF91CF910895CF93DF9373
:1004500000D01F92CDB7DEB790E896BD16BC88B32A
:10046000866088BB8BE080BD98B983E085BF80E65D
:100470008BBF86E085BB789481E0EDDD0CDE02DE8B
:10048000D1DE1092160181E08093180110921701BD
:100490001092190110921A0110921B0110921D0165
:1004A00010921C018FEF80931E0181E090E00ED32B
:1004B000813019F080E590E002C088EC90E09093E4
:1004C00021018093200180E090E000D3813011F081
:1004D00083E001C082E080931F01B2E4EB2EB1E023
:1004E000FB2EE2E2F1E08FEF8193EE16FF06E1F7DB
:1004F00043E050E062E070E0CE010196D7D28981FE
:100500008823B1F1EA81EA3098F5F0E0EC58FF4F2A
:10051000D080D7FC2DC0EB81EA3040F4F0E0EE0F44
:10052000FF1FE05AFF4FA080B18002C0A12CB12C68
:10053000B19B1BC000E010E00A151B0548F4B19BFD
:1005400017C080E088DDA7DD9DDD005C1F4FF4CF84
:1005500099DD81E090E0BAD2813091F528EC30E06D
:1005600040E06D2D82E291E0B9DD81E080931A01D7
:10057000BB24B394CC24CA9401E01FEF55E0752E40
:1005800063E0D62E74E0672EECE04E2EF2E05F2E94
:1005900026B381E0922F927021FF80E080931801B2
:1005A00020911A01222379F010921601109217015E
:1005B00010934201992309F452C210921A014FC2BA
:1005C00020E530E0CDCFB81609F4F4C1911108C090
:1005D000809117018160809317011092420122C01F
:1005E00010921701809142019FEF980F9A30F0F01E
:1005F0001093420180911601811112C043DD40E247
:1006000050E065EE70E082E291E050D2209120014E
:100610003091210140E067E082E291E05FDDD4C1EA
:1006200010921A0180E017DD36DDCEC18A3011F458
:100630001092420181E00FDD2EDD24DDB090160125
:10064000B1102AC060912001709121018091420176
:100650009FDE909142012FEF290F80911D012230E2
:1006600058F4803208F0B0C1E82FF0E0913011F476
:100670009AE007C09BE005C0803208F0A5C1E82FD2
:10068000F0E0EA5EFE4F94878F5F80931D0167E084
:1006900082E291E013DD98C181E0B81282C08091BE
:1006A0001B01B0904201882309F44CC08FEF8B0DE1
:1006B000823048F580911D01803248F01092160179
:1006C00010921B0160E273E084EF62DE7DC1E82FCF
:1006D000F0E091E0B91202C09AE001C09BE0EA5E4E
:1006E000FE4F94878F5F80931D0160911C0182E211
:1006F00091E0E4DC609120017091210183EF48DEFC
:10070000D0921601CFC083E0B8121AC080911D01AB
:100710008032A0F6E82FF0E0EA5EFE4F44868F5F5D
:1007200080931D0160911C0182E291E0C7DC609121
:1007300020017091210186EF2BDEB0921601B2C02C
:1007400010921B0191E0B91206C0609120017091D6
:1007500021018AE008C082E0B81207C06091200140
:10076000709121018BE014DE22C193E0B91208C020
:1007700089DC209120013091210140E067E00DC02B
:10078000EB2DBB0CFF0BEC58FF4F608167FD1CC1CC
:10079000209120013091210141E082E291E09EDC34
:1007A00006C182E0B812A1C0E0914201E130C1F47B
:1007B00081E090E08BD1B82E61E0811160E081E0B2
:1007C00090E0ADD1BB2019F080E590E002C088EC4C
:1007D00090E09093210180932001BB20E1F014C0B0
:1007E000E23049F580E090E071D1A82E61E08111FE
:1007F00060E080E090E093D1AA2011F043E0B42EB5
:10080000B0921F01A11007C020E5A22EB12C36E93D
:10081000832E912C08C08CE2A82EBB24B3949CE2BA
:10082000892E99249394B50186EFB2DDC4018ADD47
:10083000B50186EF98CF80911B018823B1F1E111BA
:1008400034C0809119018430C1F443E050E062E08B
:1008500070E0CE0101962AD119821A831B8343E0EE
:1008600050E062E070E0CE01019638D160E273E0C2
:1008700084EF8EDD10931E0113C08330E9F4E2E2B1
:10088000F1E0C192EE16FF06E1F710921D016091B2
:100890001C0182E291E012DC60E971E084EF78DD16
:1008A0001092160110921B018FC0E33029F4609260
:1008B00019016092160116C00E2E000CFF0BEC58A9
:1008C000FF4F808187FD73C0D092190180931C0176
:1008D00010921D01E2E2F1E0C192EE16FF06E1F78F
:1008E000D092160100931B016FC093E0B9121DC096
:1008F00080911D01803230F01092160160E273E0A9
:1009000084EF0FC0E82FF0E0EA5EFE4F90914201C5
:1009100094878F5F80931D01609120017091210168
:1009200083EF36DD60911C01B3CE84E0B81222C0A3
:1009300080914201E82F082E000CFF0BEC58FF4F6E
:10094000908197FD34C080931E01709216016091D2
:1009500020017091210183EF1BDD098380911E012D
:100960008A837B8243E050E062E070E0CE01019632
:10097000B5D02AC095E0B91227C0809142018A30D3
:1009800084F4098390911E019A838B8343E050E0A5
:1009900062E070E0CE010196A1D060E971E085EFE0
:1009A00003C060E971E084EFF3DC10931E01109244
:1009B00016010AC0BB2041F01092160110921701D7
:1009C0001093420110921901B09018018091170103
:1009D00080FF1FC08B7F8093170180911F013BDB3D
:1009E0005ADB8091170182FF12C0909116019093FB
:1009F0001901933011F400931B01009316018A7FB3
:100A000082608093170168EC70E083EF16C08E7FE0
:100A100017C081FF18C08B7F8093170183E01BDB19
:100A20003ADB8091170182FF0AC050921601897F3C
:100A30008093170168EC70E085EFAADCA9CD8D7F6B
:100A400080931701A5CD85B7877E806185BF85B767
:100A5000806285BF889585B78F7D85BF99CDB82E7B
:100A600097CD0024552704C0080E591F880F991FE1
:100A7000009729F076956795B8F37105B9F7802D41
:100A8000952F0895AA1BBB1B51E107C0AA1FBB1FCE
:100A9000A617B70710F0A61BB70B881F991F5A950A
:100AA000A9F780959095BC01CD010895DC01CB019B
:100AB000FC01E199FECF06C0FFBBEEBBE09A319688
:100AC0000DB20D9241505040B8F70895E199FECF14
:100AD0009FBB8EBBE09A99278DB30895DC01A40FCC
:100AE000B51F4150504040F0CB01840F951F2E910F
:100AF00005D041505040D8F70895262FE199FECFF8
:100B00009FBB8EBBE09A01970DB2021639F01CBA5A
:100B10002DBB0FB6F894E29AE19A0FBE0895262FE6
:100B2000E199FECF1CBA9FBB8EBB2DBB0FB6F894CC
:0E0B3000E29AE19A0FBE01960895F894FFCF65
:100B3E00F401E803D007B80BA00F88137017581BE9
:100B4E00401F282300FFFFFF010203040506573D47
:100B5E004F2E572E602E4F32573260324F38573845
:100B6E0060384F3D603D404346494C4F5255585BAF
:100B7E005E606366686A6D6F7173757678797B7C7B
:100B8E007D7E7E7F7F7F7F7F7F7F7E7E7D7C7B797C
:100B9E0078767573716F6D6A686663605E5B5855C3
:100BAE00524F4C494643403C393633302D2A272488
:100BBE00211F1C19171512100E0C0A090706040323
:100BCE000201010000000000000001010203040602
:100BDE0007090A0C0E10121517191C1F2124272A9B
:060BEE002D303336393CC6
:00000001FF
