:100000000EC09CC1C0C126C025C001C223C022C0F1
:1000100021C020C01FC01EC0C0C11CC01BC01124F5
:100020001FBECFE5D2E0DEBFCDBF11E0A0E6B0E05D
:10003000ECEEFFE002C005900D92AC31B107D9F7AC
:1000400021E0ACE1B1E001C01D92A536B207E1F7B5
:10005000D4D2CAC78EC1A895F89414BE91B5986140
:1000600091BD813049F030F0823041F0833041F46D
:1000700087E405C082E403C083E401C085E481BD58
:1000800078940895A895F89414BE81B5886181BDCF
:1000900011BC7894089585B7877E806185BFF894F8
:1000A00085B7806285BF85B7846885BF8B7F85BF34
:1000B0007894889585B78F7D85BF08959B01893099
:1000C00058F490E06AE270E00FD7BC01675F7F4FA1
:1000D0004AE250E0C90159C7089543E050E066E0A4
:1000E00070E053C7CF93909155019A32B0F4C82F66
:1000F000E92FF0E0E45EFE4F87839F5F9093550108
:1001000063E271E088E0DADFCC3039F01092580118
:1001100080911D01886080931D01CF910895909179
:1001200055019A32E8F4E92FF0E0E45EFE4F878350
:100130009F5F9093550180911C01863039F080912A
:100140005301863019F08091540101C087E063E2C9
:1001500071E0B4DF6091590170915A0183EFEFC1F2
:1001600060E273E084EFEBD110921C010895CF930D
:10017000DF93E3E2F1E09C01265D3F4FDF01EC01FC
:100180004991CE014D93C217D307C9F780E09191F1
:1001900097FD03C08F5F8A32D1F78093550180911C
:1001A0001C01863039F080915301863019F080911E
:1001B000540101C087E063E271E080DFC0E080911C
:1001C0005501C81768F46091590170915A0183EF85
:1001D000B6D18091590190915A018BD1CF5FEFCF69
:1001E000DF91CF9108951F93CF93DF9300D01F929B
:1001F000CDB7DEB7182F43E050E061E070E0CE01EC
:100200000196ABD689818F3FC9F46091500181E09E
:1002100090E0DCD66091510182E090E0D7D6609109
:10022000520183E090E0D2D6612F80E090E0CED6FC
:100230001093220160E971E085EF36C090E02091D3
:100240005001022E000C330B82179307A9F42A8168
:1002500030E080915101082E000C990B28173907C6
:1002600059F44B8150E020915201022E000C330BC7
:1002700081E04217530709F080E080FF16C06FEF5E
:1002800081E090E0A3D66FEF82E090E09FD66FEF21
:1002900083E090E09BD660E080E090E097D61092FB
:1002A000220160E971E084EF4AD10F900F900F9026
:1002B000DF91CF911F910895EF92FF920F931F93BB
:1002C000CF93DF93693098F58A017C01862F90E007
:1002D0006AE270E009D6BC01675F7F4F4AE250E0F6
:1002E000C7013BD6E7018AE2E80EF11CFE018191CD
:1002F00087FF15C0EE15FF05D1F760E971E084EFC7
:10030000DF91CF911F910F91FF90EF9018C18C302A
:1003100051F480ED97E0EDD0CE15DF0541F08991E5
:100320008D30D0F7F4CFB8010AD1C801F4CFDF91F6
:10033000CF911F910F91FF90EF9008951F920F9210
:100340000FB60F9211248F9380911E0181110BC063
:1003500080911D018C7F80931D0180914D018F5FE5
:1003600080934D01A8958F910F900FBE0F901F9015
:1003700018951F920F920FB60F9211240F900FBE77
:100380000F901F9018951F920F920FB60F92112485
:100390000F900FBE0F901F9018951F920F920FB6DF
:1003A0000F9211248F93EF93FF93ECE1F1E08181A1
:1003B00084608183FF91EF918F910F900FBE0F901A
:1003C0001F9018958AB580688ABD8AB58F7B8ABDD3
:1003D000089582E089BF83E08ABD81E083BF12BEB9
:1003E00019BCB89A1092620110925F0110926101DB
:1003F00010926001109264011092630110925B01EF
:1004000010925C0110925D0110925E0108951F929E
:100410000F920FB60F9211242F933F938F939F93B8
:10042000AF93BF93EF93FF9320916201809160019E
:1004300090916101820F911D909361018093600101
:10044000E0916001F0916101349623E0F695E79523
:100450002A95E1F7EF770E2E000CFF0BE456FF4FC5
:10046000808190915F019923F1F090915F0120913B
:10047000630130916401290F311D30936401209391
:100480006301E0916301F0916401349693E0F69585
:10049000E7959A95E1F7EF770E2E000CFF0BE456E7
:1004A000FF4F908101C090E0890F96959695891B2A
:1004B00089BD80915B0190915C01A0915D01B0913B
:1004C0005E010196A11DB11D80935B0190935C01BB
:1004D000A0935D01B0935E01FF91EF91BF91AF9149
:1004E0009F918F913F912F910F900FBE0F901F9072
:1004F000189510925B0110925C0110925D011092B0
:100500005E0125B7277E25BF6FE070E0EDD4A0E047
:10051000B0E040915B0150915C0160915D01709190
:100520005E0184179507A607B70740F025B720623C
:1005300025BF889525B72F7D25BFEBCF0895CF9395
:10054000DF93EB011BBE8C3060F4E82FEE0FFF0B46
:10055000EC57FF4F808180936201818180935F011E
:1005600007C0863F39F482E48093620110925F01F4
:1005700029DF31C0833F11F481E2F6CF853FA1F43A
:1005800082E28093620110925F011CDFCE0163E082
:1005900070E0BBD4EB01CB01ACDF8BE28093620156
:1005A000CE01A7DF83E315C0843FB9F483E38093D2
:1005B000620110925F0106DFCE0163E070E0A5D416
:1005C000EB01CB0196DF8BE280936201CE0191DFDC
:1005D00082E280936201CE018CDF8AB58F778ABD7B
:1005E0008AB58F7B8ABDC0981092620110925F011C
:1005F00080E68BBFDF91CF910895CF93DF9300D03A
:100600001F92CDB7DEB71092580180E090E0B5D4CC
:10061000833008F080E08093220190E896BD16BCFC
:1006200088B3866088BB8BE080BD98B983E085BFC6
:1006300080E68BBF86E085BB789481E00CDD2BDD06
:1006400021DDC7DE10921C0181E080931E01109213
:100650001D011092530110921F01109221018FEF82
:1006600080934E0180934F018093500180935101FC
:100670008093520110922001109255011092540162
:100680008093560185E090E078D4813019F080E5C0
:1006900090E002C088EC90E090935A018093590159
:1006A00084E090E06AD4813011F083E001C082E000
:1006B00080935701BDE4CB2EB1E0DB2EE3E2F1E005
:1006C0008FEF819391E0ED34F907D9F743E050E0E3
:1006D00066E070E0CE01019640D489818130D9F581
:1006E000EA81EF3F49F0EA30B0F5F0E0E658FF4F1D
:1006F000108117FF02C02FC017E0EB81EA3040F4F1
:10070000F0E0EE0FFF1FE05AFF4FA080B18002C063
:10071000A12CB12CB19B1CC0E12CF12CEA14FB04E0
:1007200050F4B19B18C080E096DCB5DCABDC80E413
:10073000E80EF11CF3CFA6DC85E090E01ED48130FA
:1007400009F09AC348EC50E0612F83E291E0B4DDF8
:1007500081E080931F0191E0442443941FEF42E025
:10076000342E50E5A52EB12C65E0762E74E0572E80
:10077000E6E06E2E86B301E0282F227081FF00E0B4
:1007800000931E0140911F01442361F010921C014F
:1007900080911D018C7F80931D0110934D012111CB
:1007A00010921F0130912101332329F0211103C040
:1007B00000E0902FDFCF4111FCCF80911D019017F9
:1007C00009F4D2C2211110C0311103C0816080939D
:1007D0001D0180911D01877F80931D0110924D01A5
:1007E00080E039DC58DCCBC28C7F80931D01809186
:1007F0004D019FEF980F9A3008F475C010934D018A
:1008000080911C01813051F43DDC4091590150919F
:100810005A0167E083E291E04FDD0BC08230F1F4D2
:10082000809122018150823038F468EC70E084EFCE
:1008300086DE10921C0195C225DC97E0909354014E
:1008400060925301E3E2F1E0119381E0ED34F807A7
:10085000D9F71092550160921C0183C291E0833058
:1008600019F0863009F090E090FF0CC00BDC4AE2F2
:1008700050E069E571E083E291E06FD383E291E0BB
:1008800076DC6FC2843091F4FDDB109356017092D8
:100890001C016091590170915A0183EF50DE498229
:1008A0001A837B82CE01019618DC5BC2811115C0D0
:1008B00080911F01811111C0E5DB4AE250E069E53A
:1008C00071E083E291E049D34091590150915A017E
:1008D00068E083E291E0F0DC44C210921F0180E006
:1008E000BADBD9DB3EC28A3011F410924D0181E0AF
:1008F000B2DBD1DBC7DB00911C01011122C00091EA
:100900004D0180912201823009F45AC16091590150
:1009100070915A01802F13DE80915801882361F075
:10092000809155018A3240F48CE0DCDB80915801E3
:10093000815080935801F0CF10925801802FD2DB64
:100940003FC1013009F03FC080912001E0914D018D
:10095000882309F494C28FEF8E0F823030F4E13097
:1009600011F48AE005C08BE003C0E33019F48CE099
:10097000D6DB1CC0AE2F0E2E000CBB0BA658BF4FF3
:100980008C9187FD1DC0893074F4082E000C990BE2
:100990006AE270E0A9D2BC01675F7F4F4AE250E093
:1009A00083E291E0DAD283E291E0E1DB80915301CE
:1009B000863009F083E080931C0110922001D1C1A0
:1009C000109220015CC2023009F0B3C08091220174
:1009D0008150823020F468EC70E084EF42C0E091F6
:1009E0004D01E130C9F485E090E0C7D2082F61E005
:1009F000813009F460E085E090E0E8D2013019F43C
:100A000080E590E002C088EC90E090935A018093DA
:100A100059010130B9F427C0E23061F584E090E07B
:100A2000ACD2E82E61E0861301C060E084E090E083
:100A3000CDD291E0E91201C003E00093570181E0BB
:100A4000E81211C02CE2E22EFF24F3943CE2832E44
:100A500099249394B70186EF72DDC4014ADDB70192
:100A600086EF6DDDAAC080E5E82EF12C96E9892E8F
:100A7000912CF0CF809120018823C1F1E11136C083
:100A8000909153019430A1F443E050E066E070E0AF
:100A9000CE01019662D219821A831B83CE01019680
:100AA0001CDB60E273E084EF4ADD1093560119C04D
:100AB00081E0933019F0963009F080E080FF1DC08E
:100AC00080915401E3E2F1E01193CE16DF06E1F7E5
:100AD0001092550163E271E0F1DA60E971E084EFB0
:100AE0002EDD10921C011092200169C0E33029F420
:100AF0005092530150921C0119C00E2E000CFF0B96
:100B0000E658FF4F808187FD58C093E090935301D2
:100B100080935401E3E2F1E0119391E0ED34F907A1
:100B2000D9F71092550183E080931C014092200177
:100B300046C081E0033019F0063009F080E080FF04
:100B400004C080914D01EBDA3AC00430F1F4809199
:100B50004D01E82F082E000CFF0BE658FF4F908147
:100B600097FD2BC08093560170921C016091590132
:100B700070915A0183EFE3DC4982809156018A83A8
:100B80007B82CE010196A9DA1AC00530C1F48091AA
:100B90004D018A3064F44982909156019A838B8387
:100BA000CE0101969ADA60E971E085EF03C060E951
:100BB00071E084EFC4DC1093560110921C010FEF1A
:100BC00080915501863008F0CCC00F3F09F4C9C0B0
:100BD00020904F0120924E018090500180924F0151
:100BE0009090510190925001E0905201E092510199
:100BF0000093520145E050E064E770E08EE491E03C
:100C000098D1892BB9F5809122018150823020F44E
:100C100068EC70E084EF25C060E273E084EF8FDC65
:100C2000E12CF12CA8956FEFC701D0D18FEFE81A16
:100C3000F80AE11492E0F906A9F7B0925A01A092DD
:100C4000590183E08093570110934E0110934F0197
:100C500010935001109351011093520160E971E01B
:100C600085EF6DDC45E050E06FEF7FEF8EE491E0C3
:100C70006DD177C08AE0281213C09BE0891210C0A2
:100C800089E0891568F08E1558F00A3048F482E042
:100C9000AADA45E050E06FEF7FEF8EE491E056D1A5
:100CA00080914E018A30C9F480914F018A30A9F4B5
:100CB000809150018A3088F4809151018A3068F423
:100CC000809152018A3048F481E08DDA45E050E0AD
:100CD0006FEF7FEF8EE491E039D180914E018B3040
:100CE00009F03FC080914F018B30D9F580915001C0
:100CF0008A30B8F5809151018A3098F5809152017F
:100D00008A3078F543E050E061E070E0CE01019672
:100D100024D189818F3F09F4A5CF90E02091500123
:100D2000022E000C330B82179307A9F42A8130E0BE
:100D300080915101082E000C990B2817390759F49E
:100D40004B8150E020915201022E000C330B81E0C8
:100D50004217530709F080E080FF84CF10922201F0
:100D60007DCF109221010BC0992349F010921C01F4
:100D7000109253018C7F80931D0110934D010091BF
:100D80001E0180911D0180FF2FC08B7F80931D016C
:100D90008091570160D97FD980911D0182FF22C0C7
:100DA00020911C012093530191E0233019F026304B
:100DB00009F090E090FD4092200140921C018A7F52
:100DC00080931D01909122019150923020F0826019
:100DD00080931D0103C04092210154D968EC70E05A
:100DE00083EF16C08E7F39C081FF16C08B7F809342
:100DF0001D0183E030D94FD980911D0182FF0AC0C7
:100E000030921C01897F80931D0168EC70E085EFB2
:100E100096DBCFCC8D7F21C083FF22C08B7F809358
:100E20001D0183E018D937D980911D0182FF14C0BC
:100E3000982F9B7F90931D0190915801923008F05C
:100E4000B8CC9F5F90935801923009F0B2CC837F69
:100E500080931D0117D9ADCC877F80931D01A9CC4C
:100E600085B7877E806185BF85B7806285BF88959D
:100E700085B78F7D85BF9DCC40E550E065CCE130E6
:100E800061F46091590170915A018AE058DB8AE05F
:100E900029D910921C010AE093CEE23061F46091EE
:100EA000590170915A018BE04ADB8BE01BD91092FB
:100EB0001C010BE085CEE33039F4E4D840915901B0
:100EC00050915A0168E00CC00E2E000CFF0BE65842
:100ED000FF4F608167FD73CE4091590150915A01D7
:100EE00083E291E0E9D969CE0024552704C0080EB9
:100EF000591F880F991F009729F076956795B8F3C9
:100F00007105B9F7802D952F0895AA1BBB1B51E1E0
:100F100007C0AA1FBB1FA617B70710F0A61BB70B69
:100F2000881F991F5A95A9F780959095BC01CD010E
:100F30000895FB01DC0104C08D910190801921F41A
:100F400041505040C8F7881B990B0895DC0101C03F
:100F50006D9341505040E0F70895DC01CB01FC0156
:100F6000E199FECF06C0FFBBEEBBE09A31960DB211
:100F70000D9241505040B8F70895E199FECF9FBBC4
:100F80008EBBE09A99278DB30895DC01A40FB51F9D
:100F90004150504040F0CB01840F951F2E9105D059
:100FA00041505040D8F70895262FE199FECF9FBBBE
:100FB0008EBBE09A01970DB2021639F01CBA2DBB18
:100FC0000FB6F894E29AE19A0FBE0895262FE199A0
:100FD000FECF1CBA9FBB8EBB2DBB0FB6F894E29A16
:0C0FE000E19A0FBE01960895F894FFCF2F
:100FEC00F401E803D007B80BA00F88137017581B37
:100FFC00401F28230A0B000B0A0000FFFFFF010211
:10100C0003040506573D4F2E572E602E4F32573294
:10101C0060324F38573860384F3D603D4043464949
:10102C004C4F5255585B5E606366686A6D6F7173A6
:10103C00757678797B7C7D7E7E7F7F7F7F7F7F7FDF
:10104C007E7E7D7C7B7978767573716F6D6A686650
:10105C0063605E5B5855524F4C494643403C3936B1
:10106C0033302D2A2724211F1C19171512100E0C92
:10107C000A09070604030201010000000000000039
:10108C0001010203040607090A0C0E1012151719A8
:0C109C001C1F2124272A2D303336393C3C
:00000001FF
