:100000000EC0A1C0C1C026C025C002C123C022C0ED
:1000100021C020C01FC01EC0C1C01CC01BC01124F5
:100020001FBECFE5D2E0DEBFCDBF11E0A0E6B0E05D
:10003000E6E9F9E002C005900D92A631B107D9F7C3
:1000400021E0A6E1B1E001C01D92AA34B207E1F7B8
:10005000D5D19FC48FC0A895F89414BE91B598616E
:1000600091BD813049F030F0823041F0833041F46D
:1000700087E405C082E403C083E401C085E481BD58
:1000800078940895A895F89414BE81B5886181BDCF
:1000900011BC7894089585B7877E806185BFF894F8
:1000A00085B7806285BF85B7846885BF8B7F85BF34
:1000B0007894889585B78F7D85BF0895683068F4FA
:1000C000062E000C770B25E0660F771F2A95E1F7C7
:1000D0006D5F7F4F40E250E03BC408950F931F9344
:1000E000CF93DF938C01C62FD42F062E000C770BF5
:1000F00085E0660F771F8A95E1F76D5F7F4F40E2DD
:1001000050E0C80115D4DD2329F0C73019F067E0AD
:10011000C801D4DFE801005E1F4F89918D3058F48B
:100120008C3019F480ED97E005C064E670E008D1EA
:1001300084E690E0DFD0C017D10779F7DF91CF9147
:100140001F910F9108951F920F920FB60F921124D5
:100150008F9380911801811107C01092170180912F
:100160003F018F5F80933F018F910F900FBE0F90E3
:100170001F9018951F920F920FB60F9211240F9097
:100180000FBE0F901F9018951F920F920FB60F92EF
:1001900011240F900FBE0F901F9018951F920F9271
:1001A0000FB60F9211248F93EF93FF93E6E1F1E0E6
:1001B000818184608183FF91EF918F910F900FBEB9
:1001C0000F901F9018958AB580688ABD8AB58F7B7D
:1001D0008ABD089582E089BF83E08ABD81E083BF44
:1001E00012BE19BCB89A10924701109244011092A5
:1001F0004601109245011092490110924801109257
:100200004001109241011092420110924301089561
:100210001F920F920FB60F9211242F933F938F933B
:100220009F93AF93BF93EF93FF93209147018091EA
:10023000450190914601820F911D90934601809354
:100240004501E0914501F0914601349623E0F69591
:10025000E7952A95E1F7EF770E2E000CFF0BEA5693
:10026000FF4F8081909144019923F1F090914401D6
:100270002091480130914901290F311D30934901E6
:1002800020934801E0914801F0914901349693E0B0
:10029000F695E7959A95E1F7EF770E2E000CFF0B98
:1002A000EA56FF4F908101C090E0890F9695969590
:1002B000891B89BD8091400190914101A09142012B
:1002C000B09143010196A11DB11D8093400190930F
:1002D0004101A0934201B0934301FF91EF91BF917F
:1002E000AF919F918F913F912F910F900FBE0F90E3
:1002F0001F901895109240011092410110924201F6
:100300001092430125B7277E25BF6FE070E0EBD246
:10031000A0E0B0E040914001509141016091420164
:100320007091430184179507A607B70740F025B7DA
:10033000206225BF889525B72F7D25BFEBCF089577
:10034000CF93DF93EB011BBE8C3060F4E82FEE0FF0
:10035000FF0BE258FF4F808180934701818180939A
:10036000440107C0863F39F482E48093470110922C
:10037000440129DF31C0833F11F481E2F6CF853F8C
:10038000A1F482E280934701109244011CDFCE0168
:1003900063E070E0B9D2EB01CB01ACDF8BE280937C
:1003A0004701CE01A7DF83E315C0843FB9F483E39F
:1003B000809347011092440106DFCE0163E070E0B4
:1003C000A3D2EB01CB0196DF8BE280934701CE01F4
:1003D00091DF82E280934701CE018CDF8AB58F776F
:1003E0008ABD8AB58F7B8ABDC09810924701109252
:1003F000440180E68BBFDF91CF910895CF93DF93C7
:1004000000D01F92CDB7DEB790E896BD16BC88B37A
:10041000866088BB8BE080BD98B983E085BF80E6AD
:100420008BBF86E085BB789481E015DE34DE2ADE62
:10043000D1DE1092160181E080931801109217010D
:100440001092190110921A0110921B0110921D01B5
:1004500010921C018FEF80931E016FE3E62E61E086
:10046000F62EEFE1F1E08193EE16FF06E1F743E0AF
:1004700050E060E070E0CE0101965AD28981882375
:1004800091F1EA81EA3078F5F0E0EC58FF4F108105
:1004900017FD29C0EB81EA3040F4F0E0EE0FFF1FBA
:1004A000E05AFF4FA080B18002C0A12CB12CB19BBB
:1004B00017C0C12CD12CCA14DB0450F4B19B13C05B
:1004C00080E0C9DDE8DDDEDD80E4C80ED11CF3CFBD
:1004D000D9DD18302CF440E0612F8FE191E0FEDD92
:1004E00081E080931A0111E0BB24BA94DD24D394F7
:1004F0000FEF85E0A82E93E0C92E24E0922E3CE079
:10050000832E42E0742E26B381E0922F927021FF59
:1005100080E08093180120911A01222359F0109253
:1005200016011092170100933F01911110921A01C8
:10053000182FE9CF181709F47EC1911108C08091D6
:10054000170181608093170110923F0119C010922A
:10055000170180913F019FEF980F9A30A8F0009308
:100560003F0180911601811109C08CDD40E250E00D
:1005700063EE70E08FE191E0DBD197C010921A0139
:1005800080E069DD88DD61C18A3011F410923F019D
:1005900081E061DD80DD76DD80911601811128C06A
:1005A00064E670E080913F01CBDE90913F012FEF38
:1005B000290F80911D01223058F4803208F045C186
:1005C000E82FF0E0913011F09BE007C09AE005C001
:1005D000803208F03AC1E82FF0E0EA5EFE4F9187E2
:1005E0008F5F80931D0167E08FE191E067DD2DC192
:1005F000813009F06BC080911B0110913F0188236D
:1006000009F443C08FEF810F823018F580911D01EE
:10061000803248F01092160110921B0160E273E0E4
:1006200084EF8EDE12C1E82FF0E0113011F09BE074
:1006300001C09AE0EA5EFE4F91878F5F80931D01B3
:1006400060911C018FE191E039DD64E670E083EF99
:1006500058C01330C1F480911D018032D8F6E82FC4
:10066000F0E0EA5EFE4F81868F5F80931D0160910E
:100670001C018FE191E022DD64E670E086EF60DE30
:100680001093160141C010921B01113021F464E651
:1006900070E08AE005C0123029F464E670E08BE077
:1006A0004FDEC6C0133021F4EDDC40E067E00AC045
:1006B000E12F110FFF0BEC58FF4F6081683008F0FD
:1006C000C4C041E08FE191E009DDBFC0823009F094
:1006D00054C080911B01E0913F018823D1F0E111CA
:1006E00016C0EFE1F1E0B192EE16FF06E1F71092CD
:1006F0001D0160911C018FE191E0E0DC60E971E097
:1007000084EF1EDEC092160110921B019EC0109253
:100710001B01809119018430B1F4E11114C043E050
:1007200050E060E070E0CE01019602D119820A83A8
:100730000B8343E050E060E070E0CE01019608D109
:1007400060E273E071C0E33019F4909216017DC04D
:100750000E2E000CFF0BEC58FF4F808187FD68C008
:1007600080931C0110921D01EFE1F1E0B192EE16B1
:10077000FF06E1F7C092160168C08330D9F480917A
:100780001D01803230F01092160160E273E084EFB8
:100790000DC0E82FF0E0EA5EFE4F90913F01918797
:1007A0008F5F80931D0164E670E083EFC9DD609187
:1007B0001C011ACF843001F580913F01E82F082EEB
:1007C000000CFF0BEC58FF4F908197FD31C08093D8
:1007D0001E01A092160164E670E083EFB1DDD982BC
:1007E00080911E018A83AB8243E050E060E070E0BC
:1007F000CE010196ADD029C0853039F580913F01F9
:100800008A3084F4D98290911E019A838B8343E0CD
:1008100050E060E070E0CE0101969AD060E971E0AE
:1008200085EF03C060E971E084EF8ADD00931E016B
:10083000109216010AC0112341F010921601109275
:10084000170100933F011092190110911801809136
:10085000170180FF1EC08B7F8093170182E0FBDBB6
:100860001ADC8091170182FF12C0909116019093BB
:100870001901933011F4D0921B01D09216018A7F96
:1008800082608093170168EC70E083EF1AC08E7F5E
:100890001BC081FF1CC08B7F8093170183E0DBDBD3
:1008A000FADB8091170182FF0EC0909116019093A0
:1008B000190170921601897F8093170168EC70E02E
:1008C00085EF3EDD20CE8D7F809317011CCE85B74E
:1008D000877E806185BF85B7806285BF889585B733
:1008E0008F7D85BF10CE0024552704C0080E591FE8
:1008F000880F991F009729F076956795B8F37105D1
:10090000B9F7802D952F0895AA1BBB1B51E107C095
:10091000AA1FBB1FA617B70710F0A61BB70B881F8F
:10092000991F5A95A9F780959095BC01CD0108951E
:10093000DC01CB01FC01E199FECF06C0FFBBEEBBA1
:10094000E09A31960DB20D9241505040B8F708959B
:10095000DC01A40FB51F4150504040F0CB01840F83
:10096000951F2E9105D041505040D8F70895262F5D
:10097000E199FECF9FBB8EBBE09A01970DB20216A4
:1009800039F01CBA2DBB0FB6F894E29AE19A0FBE6B
:060990000895F894FFCF6A
:10099600F401E803D007B80BA00F88137017581B93
:1009A600401F282300FFFFFF010203040506573DF1
:1009B6004F2E572E602E4F32573260324F385738EF
:1009C60060384F3D603D404346494C4F5255585B59
:1009D6005E606366686A6D6F7173757678797B7C25
:1009E6007D7E7E7F7F7F7F7F7F7F7E7E7D7C7B7926
:1009F60078767573716F6D6A686663605E5B58556D
:100A0600524F4C494643403C393633302D2A272431
:100A1600211F1C19171512100E0C0A0907060403CC
:100A260002010100000000000000010102030406AB
:100A360007090A0C0E10121517191C1F2124272A44
:060A46002D303336393C6F
:00000001FF
