:100000000EC08FC0AFC026C025C0F0C023C022C024
:1000100021C020C01FC01EC0AFC01CC01BC0112407
:100020001FBECFE5D2E0DEBFCDBF11E0A0E6B0E05D
:10003000E4E0F9E002C005900D92A631B107D9F7CE
:1000400021E0A6E1B1E001C01D92AA34B207E1F7B8
:10005000C3D156C47DC0A895F89414BE91B59861DB
:1000600091BD813039F020F0823031F487E403C053
:1000700082E401C083E481BD78940895A895F89442
:1000800014BE81B5886181BD11BC7894089585B78F
:10009000877E806185BFF89485B7806285BF85B70C
:1000A000846885BF8B7F85BF7894889585B78F7D61
:1000B00085BF0895683068F4062E000C770B25E0A4
:1000C000660F771F2A95E1F76D5F7F4F40E250E0A2
:1000D000F6C308950F931F93CF93DF938C01062EE1
:1000E000000C770B85E0660F771F8A95E1F76D5F4F
:1000F0007F4F40E250E0C801D2D3E801005E1F4FBD
:1001000089918C3030F46AEF70E008D18AEF90E08A
:10011000DFD0C017D107A1F7DF91CF911F910F91C9
:1001200008951F920F920FB60F9211248F93809112
:100130001801811107C01092170180913F018F5F54
:1001400080933F018F910F900FBE0F901F901895D5
:100150001F920F920FB60F9211240F900FBE0F90A7
:100160001F9018951F920F920FB60F9211240F90A7
:100170000FBE0F901F9018951F920F920FB60F92FF
:1001800011248F93EF93FF93E6E1F1E08181846086
:100190008183FF91EF918F910F900FBE0F901F9071
:1001A00018958AB580688ABD8AB58F7B8ABD089507
:1001B00082E089BF83E08ABD81E083BF12BE19BCA3
:1001C000B89A109247011092440110924601109281
:1001D000450110924901109248011092400110927D
:1001E0004101109242011092430108951F920F9213
:1001F0000FB60F9211242F933F938F939F93AF933A
:10020000BF93EF93FF932091470180914501909117
:100210004601820F911D9093460180934501E09124
:100220004501F0914601349623E0F695E7952A952D
:10023000E1F7EF770E2E000CFF0BEA56FF4F80819F
:10024000909144019923F1F090914401209148014B
:1002500030914901290F311D309349012093480104
:10026000E0914801F0914901349693E0F695E795C5
:100270009A95E1F7EF770E2E000CFF0BEA56FF4F31
:10028000908101C090E0890F96959695891B89BD54
:100290008091400190914101A0914201B0914301B0
:1002A0000196A11DB11D8093400190934101A0933F
:1002B0004201B0934301FF91EF91BF91AF919F91A4
:1002C0008F913F912F910F900FBE0F901F90189517
:1002D000109240011092410110924201109243018C
:1002E00025B7277E25BF6FE070E0B4D2A0E0B0E074
:1002F0004091400150914101609142017091430150
:1003000084179507A607B70740F025B7206225BFD9
:10031000889525B72F7D25BFEBCF0895CF93DF9329
:10032000EB011BBE8C3060F4E82FEE0FFF0BE258A0
:10033000FF4F80818093470181818093440107C0F2
:10034000863F39F482E4809347011092440129DF0B
:1003500031C0833F11F481E2F6CF853FA1F482E200
:1003600080934701109244011CDFCE0163E070E0EE
:1003700082D2EB01CB01ACDF8BE280934701CE014F
:10038000A7DF83E315C0843FB9F483E3809347017B
:100390001092440106DFCE0163E070E06CD2EB0105
:1003A000CB0196DF8BE280934701CE0191DF82E2A1
:1003B00080934701CE018CDF8AB58F778ABD8AB5DD
:1003C0008F7B8ABDC098109247011092440180E64D
:1003D0008BBFDF91CF910895CF93DF9300D01F9211
:1003E000CDB7DEB790E896BD16BC88B3866088BBF3
:1003F0008BE080BD98B983E085BF80E68BBF86E047
:1004000085BB789481E027DE42DE38DED1DE1092B3
:10041000160181E0809318011092170110921901C2
:1004200010921A0110921B0110921D0110921C01D2
:100430008FEF80931E010FE311E0EFE1F1E0819374
:100440000E171F07E1F743E050E060E070E0CE01D7
:10045000019625D28981882389F1EA81EA3070F5F5
:10046000F0E0EC58FF4FF080F7FC28C0EB81EA3059
:1004700040F4F0E0EE0FFF1FE05AFF4FA080B18084
:1004800002C0A12CB12CB19B16C0C12CD12CCA1416
:10049000DB0450F4B19B12C080E0DDDDF8DDEEDD61
:1004A00080E4C80ED11CF3CF87E08F1524F06F2DA8
:1004B0008FE191E00FDE81E080931A0199249394FB
:1004C000CC24CA94EE24E394FF24FA9485E0B82E59
:1004D00093E0D92E24E0A22E26B381E0922F9270D1
:1004E00021FF80E08093180120911A01222359F006
:1004F0001092160110921701F0923F019111109283
:100500001A01982EE9CF981609F44BC1911108C031
:100510008091170181608093170110923F0118C0EC
:100520001092170180913F019FEF980F9A30A0F031
:10053000F0923F0180911601811108C040E250E025
:1005400063EE70E08FE191E0AAD19DC010921A0194
:1005500080E081DD9CDD2FC18A3011F410923F01D3
:1005600081E079DD94DD8ADD80911601811116C06C
:100570006AEF70E080913F01D1DE80911D018032F1
:1005800008F019C1E82FF0E0EA5EFE4F90913F01BC
:1005900091878F5F80931D0167E0BEC0813009F0B5
:1005A00081C080911B01E0913F01882309F442C082
:1005B0008FEF8E0F823020F580911D01803248F040
:1005C0001092160110921B0160E273E084EFA6DE28
:1005D000F2C0282F30E0E13011F09BE001C09AE03A
:1005E000F901EA5EFE4F91878F5F80931D01609154
:1005F0001C018FE191E05EDD6AEF70E083EF12C0D5
:10060000E11116C0EFE1F1E0C1920E171F07E1F70B
:1006100010921D0160911C018FE191E04BDD60E9BA
:1006200071E084EF7BDED092160110921B01C3C0F3
:1006300010921B01809119018430B1F4E11114C0B2
:1006400043E050E060E070E0CE01019628D11982CD
:10065000FA82FB8243E050E060E070E0CE01019658
:100660002ED160E273E096C0E13021F46AEF70E0D1
:100670008AE005C0E23029F46AEF70E08BE04EDEDC
:100680008DC0E33011F467E009C00E2E000CFF0BA3
:10069000EC58FF4F6081683008F08DC08FE191E029
:1006A00019DD89C08230E1F4E0913F01E33019F4B3
:1006B000A092160180C00E2E000CFF0BEC58FF4FCD
:1006C000808187FD6BC080931C0110921D01EFE1BA
:1006D000F1E0C1920E171F07E1F7D09216016BC02F
:1006E0008330F1F480911D01803230F010921601B8
:1006F00060E273E084EF0DC0E82FF0E0EA5EFE4FA9
:1007000090913F0191878F5F80931D016AEF70E0A8
:1007100083EF04DE60911C018FE191E0CBDC4BC0E4
:10072000843001F580913F01E82F082E000CFF0B6B
:10073000EC58FF4F908197FD31C080931E01B0921D
:1007400016016AEF70E083EFE9DDE98280911E0116
:100750008A83BB8243E050E060E070E0CE01019606
:10076000AED029C0853039F580913F018A3084F4BC
:10077000E98290911E019A838B8343E050E060E010
:1007800070E0CE0101969BD060E971E085EF03C077
:1007900060E971E084EFC2DDF0921E011092160153
:1007A0000AC0992041F01092160110921701F092A0
:1007B0003F0110921901909018018091170180FF5C
:1007C0001EC08B7F8093170182E045DC60DC809146
:1007D000170182FF12C09091160190931901933076
:1007E00011F4E0921B01E09216018A7F82608093EF
:1007F000170168EC70E083EF1BC08E7F1CC081FF87
:100800001DC08B7F8093170182E025DC40DC809146
:10081000170182FF0FC0909116019093190192E089
:1008200090931601897F8093170168EC70E085EF43
:1008300075DD52CE8D7F809317014ECE85B7877EB2
:10084000806185BF85B7806285BF889585B78F7DBC
:1008500085BF42CE0024552704C0080E591F880FBB
:10086000991F009729F076956795B8F37105B9F748
:10087000802D952F0895AA1BBB1B51E107C0AA1F0D
:10088000BB1FA617B70710F0A61BB70B881F991F31
:100890005A95A9F780959095BC01CD010895DC018A
:1008A000CB01FC01E199FECF06C0FFBBEEBBE09A95
:1008B00031960DB20D9241505040B8F70895DC01C9
:1008C000A40FB51F4150504040F0CB01840F951F3D
:1008D0002E9105D041505040D8F70895262FE19928
:1008E000FECF9FBB8EBBE09A01970DB2021639F086
:1008F0001CBA2DBB0FB6F894E29AE19A0FBE089588
:04090000F894FFCF99
:10090400F401E803D007B80BA00F88137017581B25
:10091400401F282300FFFFFF010203040506573D83
:100924004F2E572E602E4F32573260324F38573881
:1009340060384F3D603D404346494C4F5255585BEB
:100944005E606366686A6D6F7173757678797B7CB7
:100954007D7E7E7F7F7F7F7F7F7F7E7E7D7C7B79B8
:1009640078767573716F6D6A686663605E5B5855FF
:10097400524F4C494643403C393633302D2A2724C4
:10098400211F1C19171512100E0C0A09070604035F
:10099400020101000000000000000101020304063E
:1009A40007090A0C0E10121517191C1F2124272AD7
:0609B4002D303336393C02
:00000001FF
